{
  "contractName": "titles",
  "abi": [
    {
      "constant": true,
      "inputs": [
        {
          "name": "",
          "type": "uint256"
        }
      ],
      "name": "title_vins",
      "outputs": [
        {
          "name": "",
          "type": "int256"
        }
      ],
      "payable": false,
      "stateMutability": "view",
      "type": "function"
    },
    {
      "constant": true,
      "inputs": [
        {
          "name": "",
          "type": "uint256"
        }
      ],
      "name": "title_holders",
      "outputs": [
        {
          "name": "",
          "type": "address"
        }
      ],
      "payable": false,
      "stateMutability": "view",
      "type": "function"
    },
    {
      "constant": false,
      "inputs": [
        {
          "name": "vin",
          "type": "int256"
        }
      ],
      "name": "register",
      "outputs": [
        {
          "name": "",
          "type": "int256"
        }
      ],
      "payable": false,
      "stateMutability": "nonpayable",
      "type": "function"
    },
    {
      "constant": true,
      "inputs": [],
      "name": "get_holders",
      "outputs": [
        {
          "name": "",
          "type": "address[32]"
        }
      ],
      "payable": false,
      "stateMutability": "view",
      "type": "function"
    },
    {
      "constant": true,
      "inputs": [],
      "name": "get_vins",
      "outputs": [
        {
          "name": "",
          "type": "int256[32]"
        }
      ],
      "payable": false,
      "stateMutability": "view",
      "type": "function"
    }
  ],
  "bytecode": "0x60606040526000604055341561001457600080fd5b61040f806100236000396000f30060606040526004361061006d576000357c0100000000000000000000000000000000000000000000000000000000900463ffffffff1680630abbde63146100725780631a6b71bf146100c257806342e02bdf14610112578063e6059f9614610149578063ec06bff214610180575b600080fd5b341561007d57600080fd5b6100856101e3565b60405180826020800280838360005b838110156100af578082015181840152602081019050610094565b5050505090500191505060405180910390f35b34156100cd57600080fd5b6100d561022d565b60405180826020800280838360005b838110156100ff5780820151818401526020810190506100e4565b5050505090500191505060405180910390f35b341561011d57600080fd5b61013360048080359060200190919050506102ae565b6040518082815260200191505060405180910390f35b341561015457600080fd5b61016a60048080359060200190919050506102c8565b6040518082815260200191505060405180910390f35b341561018b57600080fd5b6101a16004808035906020019091905050610346565b604051808273ffffffffffffffffffffffffffffffffffffffff1673ffffffffffffffffffffffffffffffffffffffff16815260200191505060405180910390f35b6101eb61037b565b60208080602002604051908101604052809291908260208015610223576020028201915b81548152602001906001019080831161020f575b5050505050905090565b6102356103a4565b60006020806020026040519081016040528092919082602080156102a4576020028201915b8160009054906101000a900473ffffffffffffffffffffffffffffffffffffffff1673ffffffffffffffffffffffffffffffffffffffff168152602001906001019080831161025a575b5050505050905090565b6020816020811015156102bd57fe5b016000915090505481565b60003360006040546020811015156102dc57fe5b0160006101000a81548173ffffffffffffffffffffffffffffffffffffffff021916908373ffffffffffffffffffffffffffffffffffffffff16021790555081602060405460208110151561032d57fe5b0181905550600160405401604081905550819050919050565b60008160208110151561035557fe5b016000915054906101000a900473ffffffffffffffffffffffffffffffffffffffff1681565b610400604051908101604052806020905b600081526020019060019003908161038c5790505090565b610400604051908101604052806020905b600073ffffffffffffffffffffffffffffffffffffffff168152602001906001900390816103b557905050905600a165627a7a723058203b3caf92fad47defe0c35c1b9c6e9bbd4a77345dcc80299a8590cc5eb65715bd0029",
  "source": "pragma solidity ^0.4.17;\ncontract titles {\n\naddress[32] public title_holders;\nint[32] public title_vins;\nuint private next = 0;\n\n//registering a car\nfunction register(int vin) public returns (int) {\n\ttitle_holders[next] = msg.sender;\n\ttitle_vins[next] = vin;\n\tnext = next + 1;\n\t\n\treturn vin;\n}\n\n//retrieving the title holders\nfunction get_holders() public view returns (address[32]){\n\treturn title_holders;\n\t}\n\t\n//retrieve title vins\nfunction get_vins() public view returns (int[32]){\n\treturn title_vins;\n\t}\n}",
  "sourcePath": "/home/patrick/eth-dev/basic-titles/contracts/titles.sol",
  "compiler": {
    "name": "solc",
    "version": "0.4.19+commit.c4cbbb05.Emscripten.clang"
  },
  "schemaVersion": "2.0.0",
  "updatedAt": "2018-03-30T01:01:12.347Z"
}